{
  "abi": [
    {
      "inputs": [
        {
          "internalType": "address",
          "name": "registrar",
          "type": "address"
        },
        {
          "components": [
            {
              "internalType": "uint256",
              "name": "writeBPS",
              "type": "uint256"
            },
            {
              "internalType": "uint256",
              "name": "transferBPS",
              "type": "uint256"
            },
            {
              "internalType": "uint256",
              "name": "fundBPS",
              "type": "uint256"
            },
            {
              "internalType": "uint256",
              "name": "cashBPS",
              "type": "uint256"
            }
          ],
          "internalType": "struct DataTypes.WTFCFees",
          "name": "_fees",
          "type": "tuple"
        },
        {
          "internalType": "string",
          "name": "__baseURI",
          "type": "string"
        },
        {
          "internalType": "address",
          "name": "_usdc",
          "type": "address"
        }
      ],
      "stateMutability": "nonpayable",
      "type": "constructor"
    },
    {
      "inputs": [],
      "name": "FeeTooHigh",
      "type": "error"
    },
    {
      "inputs": [],
      "name": "InitParamsInvalid",
      "type": "error"
    },
    {
      "inputs": [],
      "name": "NotRegistrar",
      "type": "error"
    },
    {
      "anonymous": false,
      "inputs": [
        {
          "indexed": true,
          "internalType": "address",
          "name": "registrar",
          "type": "address"
        },
        {
          "indexed": false,
          "internalType": "uint256",
          "name": "timestamp",
          "type": "uint256"
        }
      ],
      "name": "ModuleBaseConstructed",
      "type": "event"
    },
    {
      "inputs": [],
      "name": "REGISTRAR",
      "outputs": [
        {
          "internalType": "address",
          "name": "",
          "type": "address"
        }
      ],
      "stateMutability": "view",
      "type": "function"
    },
    {
      "inputs": [],
      "name": "_URI",
      "outputs": [
        {
          "internalType": "string",
          "name": "",
          "type": "string"
        }
      ],
      "stateMutability": "view",
      "type": "function"
    },
    {
      "inputs": [
        {
          "internalType": "address",
          "name": "_address",
          "type": "address"
        }
      ],
      "name": "addToWhitelist",
      "outputs": [],
      "stateMutability": "nonpayable",
      "type": "function"
    },
    {
      "inputs": [],
      "name": "admin",
      "outputs": [
        {
          "internalType": "address",
          "name": "",
          "type": "address"
        }
      ],
      "stateMutability": "view",
      "type": "function"
    },
    {
      "inputs": [
        {
          "internalType": "uint256",
          "name": "",
          "type": "uint256"
        }
      ],
      "name": "coverageInfo",
      "outputs": [
        {
          "internalType": "uint256",
          "name": "coverageAmount",
          "type": "uint256"
        },
        {
          "internalType": "address",
          "name": "coverageHolder",
          "type": "address"
        },
        {
          "internalType": "bool",
          "name": "wasRedeemed",
          "type": "bool"
        }
      ],
      "stateMutability": "view",
      "type": "function"
    },
    {
      "inputs": [
        {
          "internalType": "address",
          "name": "",
          "type": "address"
        }
      ],
      "name": "dappOperatorFees",
      "outputs": [
        {
          "internalType": "uint256",
          "name": "writeBPS",
          "type": "uint256"
        },
        {
          "internalType": "uint256",
          "name": "transferBPS",
          "type": "uint256"
        },
        {
          "internalType": "uint256",
          "name": "fundBPS",
          "type": "uint256"
        },
        {
          "internalType": "uint256",
          "name": "cashBPS",
          "type": "uint256"
        }
      ],
      "stateMutability": "view",
      "type": "function"
    },
    {
      "inputs": [
        {
          "internalType": "uint256",
          "name": "fundingAmount",
          "type": "uint256"
        }
      ],
      "name": "fundPool",
      "outputs": [],
      "stateMutability": "nonpayable",
      "type": "function"
    },
    {
      "inputs": [
        {
          "internalType": "address",
          "name": "dappOperator",
          "type": "address"
        }
      ],
      "name": "getFees",
      "outputs": [
        {
          "components": [
            {
              "internalType": "uint256",
              "name": "writeBPS",
              "type": "uint256"
            },
            {
              "internalType": "uint256",
              "name": "transferBPS",
              "type": "uint256"
            },
            {
              "internalType": "uint256",
              "name": "fundBPS",
              "type": "uint256"
            },
            {
              "internalType": "uint256",
              "name": "cashBPS",
              "type": "uint256"
            }
          ],
          "internalType": "struct DataTypes.WTFCFees",
          "name": "",
          "type": "tuple"
        }
      ],
      "stateMutability": "view",
      "type": "function"
    },
    {
      "inputs": [
        {
          "internalType": "address",
          "name": "",
          "type": "address"
        }
      ],
      "name": "isWhitelisted",
      "outputs": [
        {
          "internalType": "bool",
          "name": "",
          "type": "bool"
        }
      ],
      "stateMutability": "view",
      "type": "function"
    },
    {
      "inputs": [
        {
          "internalType": "address",
          "name": "caller",
          "type": "address"
        },
        {
          "internalType": "address",
          "name": "owner",
          "type": "address"
        },
        {
          "internalType": "address",
          "name": "",
          "type": "address"
        },
        {
          "internalType": "uint256",
          "name": "",
          "type": "uint256"
        },
        {
          "components": [
            {
              "internalType": "uint256",
              "name": "escrowed",
              "type": "uint256"
            },
            {
              "internalType": "uint256",
              "name": "createdAt",
              "type": "uint256"
            },
            {
              "internalType": "address",
              "name": "currency",
              "type": "address"
            },
            {
              "internalType": "address",
              "name": "module",
              "type": "address"
            }
          ],
          "internalType": "struct DataTypes.Cheq",
          "name": "",
          "type": "tuple"
        },
        {
          "internalType": "bytes",
          "name": "",
          "type": "bytes"
        }
      ],
      "name": "processApproval",
      "outputs": [],
      "stateMutability": "view",
      "type": "function"
    },
    {
      "inputs": [
        {
          "internalType": "address",
          "name": "",
          "type": "address"
        },
        {
          "internalType": "address",
          "name": "",
          "type": "address"
        },
        {
          "internalType": "address",
          "name": "",
          "type": "address"
        },
        {
          "internalType": "uint256",
          "name": "",
          "type": "uint256"
        },
        {
          "internalType": "uint256",
          "name": "",
          "type": "uint256"
        },
        {
          "components": [
            {
              "internalType": "uint256",
              "name": "escrowed",
              "type": "uint256"
            },
            {
              "internalType": "uint256",
              "name": "createdAt",
              "type": "uint256"
            },
            {
              "internalType": "address",
              "name": "currency",
              "type": "address"
            },
            {
              "internalType": "address",
              "name": "module",
              "type": "address"
            }
          ],
          "internalType": "struct DataTypes.Cheq",
          "name": "",
          "type": "tuple"
        },
        {
          "internalType": "bytes",
          "name": "",
          "type": "bytes"
        }
      ],
      "name": "processCash",
      "outputs": [
        {
          "internalType": "uint256",
          "name": "",
          "type": "uint256"
        }
      ],
      "stateMutability": "view",
      "type": "function"
    },
    {
      "inputs": [
        {
          "internalType": "address",
          "name": "",
          "type": "address"
        },
        {
          "internalType": "address",
          "name": "owner",
          "type": "address"
        },
        {
          "internalType": "uint256",
          "name": "amount",
          "type": "uint256"
        },
        {
          "internalType": "uint256",
          "name": "instant",
          "type": "uint256"
        },
        {
          "internalType": "uint256",
          "name": "cheqId",
          "type": "uint256"
        },
        {
          "components": [
            {
              "internalType": "uint256",
              "name": "escrowed",
              "type": "uint256"
            },
            {
              "internalType": "uint256",
              "name": "createdAt",
              "type": "uint256"
            },
            {
              "internalType": "address",
              "name": "currency",
              "type": "address"
            },
            {
              "internalType": "address",
              "name": "module",
              "type": "address"
            }
          ],
          "internalType": "struct DataTypes.Cheq",
          "name": "cheq",
          "type": "tuple"
        },
        {
          "internalType": "bytes",
          "name": "initData",
          "type": "bytes"
        }
      ],
      "name": "processFund",
      "outputs": [
        {
          "internalType": "uint256",
          "name": "",
          "type": "uint256"
        }
      ],
      "stateMutability": "nonpayable",
      "type": "function"
    },
    {
      "inputs": [
        {
          "internalType": "uint256",
          "name": "tokenId",
          "type": "uint256"
        }
      ],
      "name": "processTokenURI",
      "outputs": [
        {
          "internalType": "string",
          "name": "",
          "type": "string"
        }
      ],
      "stateMutability": "view",
      "type": "function"
    },
    {
      "inputs": [
        {
          "internalType": "address",
          "name": "caller",
          "type": "address"
        },
        {
          "internalType": "address",
          "name": "approved",
          "type": "address"
        },
        {
          "internalType": "address",
          "name": "owner",
          "type": "address"
        },
        {
          "internalType": "address",
          "name": "",
          "type": "address"
        },
        {
          "internalType": "address",
          "name": "",
          "type": "address"
        },
        {
          "internalType": "uint256",
          "name": "",
          "type": "uint256"
        },
        {
          "internalType": "address",
          "name": "currency",
          "type": "address"
        },
        {
          "internalType": "uint256",
          "name": "escrowed",
          "type": "uint256"
        },
        {
          "internalType": "uint256",
          "name": "",
          "type": "uint256"
        },
        {
          "internalType": "bytes",
          "name": "data",
          "type": "bytes"
        }
      ],
      "name": "processTransfer",
      "outputs": [
        {
          "internalType": "uint256",
          "name": "",
          "type": "uint256"
        }
      ],
      "stateMutability": "nonpayable",
      "type": "function"
    },
    {
      "inputs": [
        {
          "internalType": "address",
          "name": "caller",
          "type": "address"
        },
        {
          "internalType": "address",
          "name": "owner",
          "type": "address"
        },
        {
          "internalType": "uint256",
          "name": "cheqId",
          "type": "uint256"
        },
        {
          "internalType": "address",
          "name": "currency",
          "type": "address"
        },
        {
          "internalType": "uint256",
          "name": "escrowed",
          "type": "uint256"
        },
        {
          "internalType": "uint256",
          "name": "instant",
          "type": "uint256"
        },
        {
          "internalType": "bytes",
          "name": "initData",
          "type": "bytes"
        }
      ],
      "name": "processWrite",
      "outputs": [
        {
          "internalType": "uint256",
          "name": "",
          "type": "uint256"
        }
      ],
      "stateMutability": "nonpayable",
      "type": "function"
    },
    {
      "inputs": [
        {
          "internalType": "uint256",
          "name": "notaId",
          "type": "uint256"
        }
      ],
      "name": "recoverFunds",
      "outputs": [],
      "stateMutability": "nonpayable",
      "type": "function"
    },
    {
      "inputs": [
        {
          "internalType": "address",
          "name": "_address",
          "type": "address"
        }
      ],
      "name": "removeFromWhitelist",
      "outputs": [],
      "stateMutability": "nonpayable",
      "type": "function"
    },
    {
      "inputs": [
        {
          "internalType": "address",
          "name": "",
          "type": "address"
        },
        {
          "internalType": "address",
          "name": "",
          "type": "address"
        }
      ],
      "name": "revenue",
      "outputs": [
        {
          "internalType": "uint256",
          "name": "",
          "type": "uint256"
        }
      ],
      "stateMutability": "view",
      "type": "function"
    },
    {
      "inputs": [
        {
          "components": [
            {
              "internalType": "uint256",
              "name": "writeBPS",
              "type": "uint256"
            },
            {
              "internalType": "uint256",
              "name": "transferBPS",
              "type": "uint256"
            },
            {
              "internalType": "uint256",
              "name": "fundBPS",
              "type": "uint256"
            },
            {
              "internalType": "uint256",
              "name": "cashBPS",
              "type": "uint256"
            }
          ],
          "internalType": "struct DataTypes.WTFCFees",
          "name": "_fees",
          "type": "tuple"
        }
      ],
      "name": "setFees",
      "outputs": [],
      "stateMutability": "nonpayable",
      "type": "function"
    },
    {
      "inputs": [],
      "name": "usdc",
      "outputs": [
        {
          "internalType": "address",
          "name": "",
          "type": "address"
        }
      ],
      "stateMutability": "view",
      "type": "function"
    },
    {
      "inputs": [
        {
          "internalType": "address",
          "name": "token",
          "type": "address"
        }
      ],
      "name": "withdrawFees",
      "outputs": [],
      "stateMutability": "nonpayable",
      "type": "function"
    }
  ],
  "bytecode": {
    "object": "0x60a06040523480156200001157600080fd5b506040516200199a3803806200199a8339810160408190526200003491620002ea565b83836001600160a01b0382166200005e576040516348be0eb360e01b815260040160405180910390fd5b6001600160a01b03821660805280516127101015620000905760405163cd4e616760e01b815260040160405180910390fd5b80602001516127101015620000b85760405163cd4e616760e01b815260040160405180910390fd5b80604001516127101015620000e05760405163cd4e616760e01b815260040160405180910390fd5b80606001516127101015620001085760405163cd4e616760e01b815260040160405180910390fd5b336000908152600160208181526040928390208451815590840151918101919091558183015160028201556060830151600390910155516001600160a01b038316907ff1a1fa6b64aa95186f5a1285e76198d0da80d9c5a88062641d447f1d7c54e56c906200017a9042815260200190565b60405180910390a2506002905062000193838262000428565b5060058054336001600160a01b031991821617909155600680549091166001600160a01b039290921691909117905550620004f4915050565b80516001600160a01b0381168114620001e457600080fd5b919050565b634e487b7160e01b600052604160045260246000fd5b604051608081016001600160401b0381118282101715620002245762000224620001e9565b60405290565b604051601f8201601f191681016001600160401b0381118282101715620002555762000255620001e9565b604052919050565b600082601f8301126200026f57600080fd5b81516001600160401b038111156200028b576200028b620001e9565b6020620002a1601f8301601f191682016200022a565b8281528582848701011115620002b657600080fd5b60005b83811015620002d6578581018301518282018401528201620002b9565b506000928101909101919091529392505050565b60008060008084860360e08112156200030257600080fd5b6200030d86620001cc565b94506080601f19820112156200032257600080fd5b506200032d620001ff565b602086015181526040860151602082015260608601516040820152608086015160608201528093505060a085015160018060401b038111156200036f57600080fd5b6200037d878288016200025d565b9250506200038e60c08601620001cc565b905092959194509250565b600181811c90821680620003ae57607f821691505b602082108103620003cf57634e487b7160e01b600052602260045260246000fd5b50919050565b601f8211156200042357600081815260208120601f850160051c81016020861015620003fe5750805b601f850160051c820191505b818110156200041f578281556001016200040a565b5050505b505050565b81516001600160401b03811115620004445762000444620001e9565b6200045c8162000455845462000399565b84620003d5565b602080601f8311600181146200049457600084156200047b5750858301515b600019600386901b1c1916600185901b1785556200041f565b600085815260208120601f198616915b82811015620004c557888601518255948401946001909101908401620004a4565b5085821015620004e45787850151600019600388901b60f8161c191681555b5050505050600190811b01905550565b60805161146762000533600039600081816103a2015281816104dc015281816105fd015281816106b4015281816108140152610a1401526114676000f3fe608060405234801561001057600080fd5b50600436106101375760003560e01c80639af608c9116100b8578063c0c9572c1161007c578063c0c9572c1461038a578063cb6090771461039d578063da3a5f72146103c4578063e43252d7146103d7578063f851a440146103ea578063fd77c960146103fd57600080fd5b80639af608c9146102ba5780639b11b4d9146103005780639c9b884814610361578063b4e87e8f1461036f578063b5d701ba1461037757600080fd5b80634fe17e1a116100ff5780634fe17e1a1461021d5780635cf5041f1461024b5780638ab1d6811461025e57806390b7c943146102715780639a0ea37a1461029257600080fd5b80631385a7b61461013c578063164e68de146101975780633af32abf146101ac5780633e413bee146101df5780634ab358c71461020a575b600080fd5b61017261014a366004610e1a565b6001602081905260009182526040909120805491810154600282015460039092015490919084565b6040805194855260208501939093529183015260608201526080015b60405180910390f35b6101aa6101a5366004610e1a565b610444565b005b6101cf6101ba366004610e1a565b60046020526000908152604090205460ff1681565b604051901515815260200161018e565b6006546101f2906001600160a01b031681565b6040516001600160a01b03909116815260200161018e565b6101aa610218366004610e3e565b610579565b61023e61022b366004610e3e565b5060408051602081019091526000815290565b60405161018e9190610e7b565b6101aa610259366004610f69565b6105f2565b6101aa61026c366004610e1a565b61063b565b61028461027f366004611043565b6106a7565b60405190815260200161018e565b6102846102a03660046110dc565b600060208181529281526040808220909352908152205481565b6102cd6102c8366004610e1a565b610701565b60405161018e91908151815260208083015190820152604080830151908201526060918201519181019190915260800190565b61033c61030e366004610e3e565b600360205260009081526040902080546001909101546001600160a01b03811690600160a01b900460ff1683565b604080519384526001600160a01b03909216602084015215159082015260600161018e565b61028461027f366004611115565b61023e610779565b61028461038536600461117a565b610807565b6102846103983660046111f2565b610a07565b6101f27f000000000000000000000000000000000000000000000000000000000000000081565b6101aa6103d2366004610e3e565b610a63565b6101aa6103e5366004610e1a565b610a7e565b6005546101f2906001600160a01b031681565b6101aa61040b3660046112bc565b33600090815260016020818152604092839020845181559084015191810191909155908201516002820155606090910151600390910155565b336000908152602081815260408083206001600160a01b0385168452909152902054600181116104b25760405162461bcd60e51b8152602060048201526014602482015273496e73756666696369656e7420726576656e756560601b60448201526064015b60405180910390fd5b336000908152602081815260408083206001600160a01b03868116855292529091206001908190557f00000000000000000000000000000000000000000000000000000000000000009091169063d6a4f84c9084906105119085611338565b6040516001600160e01b031960e085901b1681526001600160a01b0390921660048301526024820152336044820152606401600060405180830381600087803b15801561055d57600080fd5b505af1158015610571573d6000803e3d6000fd5b505050505050565b60008181526003602052604090206001810154600160a01b900460ff16156105a057600080fd5b60018101546001600160a01b031633146105b957600080fd5b600181015481546006546105db926001600160a01b0391821692911690610aed565b600101805460ff60a01b1916600160a01b17905550565b336001600160a01b037f0000000000000000000000000000000000000000000000000000000000000000161461057157604051632ad9535160e01b815260040160405180910390fd5b6005546001600160a01b031633146106865760405162461bcd60e51b815260206004820152600e60248201526d139bdd08185d5d1a1bdc9a5e995960921b60448201526064016104a9565b6001600160a01b03166000908152600460205260409020805460ff19169055565b6000336001600160a01b037f000000000000000000000000000000000000000000000000000000000000000016146106f257604051632ad9535160e01b815260040160405180910390fd5b50600098975050505050505050565b61072c6040518060800160405280600081526020016000815260200160008152602001600081525090565b506001600160a01b03166000908152600160208181526040928390208351608081018552815481529281015491830191909152600281015492820192909252600390910154606082015290565b6002805461078690611351565b80601f01602080910402602001604051908101604052809291908181526020018280546107b290611351565b80156107ff5780601f106107d4576101008083540402835291602001916107ff565b820191906000526020600020905b8154815290600101906020018083116107e257829003601f168201915b505050505081565b6000336001600160a01b037f0000000000000000000000000000000000000000000000000000000000000000161461085257604051632ad9535160e01b815260040160405180910390fd5b6001600160a01b03891660009081526004602052604090205460ff166108ac5760405162461bcd60e51b815260206004820152600f60248201526e139bdd081dda1a5d195b1a5cdd1959608a1b60448201526064016104a9565b600080806108bc85870187611385565b91945092509050806108d0612710846113ba565b6108da91906113dc565b871461091c5760405162461bcd60e51b8152602060048201526011602482015270149a5cdac8199959481b9bdd081c185a59607a1b60448201526064016104a9565b6001600160a01b038b1630146109745760405162461bcd60e51b815260206004820152601960248201527f5269736b20666565206e6f74207061696420746f20706f6f6c0000000000000060448201526064016104a9565b6006546001600160a01b038a81169116146109c65760405162461bcd60e51b8152602060048201526012602482015271496e636f72726563742063757272656e637960701b60448201526064016104a9565b506000988952600360205260408920600181018054929091556001600160a01b03929092166001600160a81b03199091161790555094979650505050505050565b6000336001600160a01b037f00000000000000000000000000000000000000000000000000000000000000001614610a5257604051632ad9535160e01b815260040160405180910390fd5b5060009a9950505050505050505050565b600654610a7b906001600160a01b0316333084610b55565b50565b6005546001600160a01b03163314610ac95760405162461bcd60e51b815260206004820152600e60248201526d139bdd08185d5d1a1bdc9a5e995960921b60448201526064016104a9565b6001600160a01b03166000908152600460205260409020805460ff19166001179055565b6040516001600160a01b038316602482015260448101829052610b5090849063a9059cbb60e01b906064015b60408051601f198184030181529190526020810180516001600160e01b03166001600160e01b031990931692909217909152610b93565b505050565b6040516001600160a01b0380851660248301528316604482015260648101829052610b8d9085906323b872dd60e01b90608401610b19565b50505050565b6000610be8826040518060400160405280602081526020017f5361666545524332303a206c6f772d6c6576656c2063616c6c206661696c6564815250856001600160a01b0316610c659092919063ffffffff16565b805190915015610b505780806020019051810190610c0691906113f3565b610b505760405162461bcd60e51b815260206004820152602a60248201527f5361666545524332303a204552433230206f7065726174696f6e20646964206e6044820152691bdd081cdd58d8d9595960b21b60648201526084016104a9565b6060610c748484600085610c7c565b949350505050565b606082471015610cdd5760405162461bcd60e51b815260206004820152602660248201527f416464726573733a20696e73756666696369656e742062616c616e636520666f6044820152651c8818d85b1b60d21b60648201526084016104a9565b600080866001600160a01b03168587604051610cf99190611415565b60006040518083038185875af1925050503d8060008114610d36576040519150601f19603f3d011682016040523d82523d6000602084013e610d3b565b606091505b5091509150610d4c87838387610d57565b979650505050505050565b60608315610dc6578251600003610dbf576001600160a01b0385163b610dbf5760405162461bcd60e51b815260206004820152601d60248201527f416464726573733a2063616c6c20746f206e6f6e2d636f6e747261637400000060448201526064016104a9565b5081610c74565b610c748383815115610ddb5781518083602001fd5b8060405162461bcd60e51b81526004016104a99190610e7b565b6001600160a01b0381168114610a7b57600080fd5b8035610e1581610df5565b919050565b600060208284031215610e2c57600080fd5b8135610e3781610df5565b9392505050565b600060208284031215610e5057600080fd5b5035919050565b60005b83811015610e72578181015183820152602001610e5a565b50506000910152565b6020815260008251806020840152610e9a816040850160208701610e57565b601f01601f19169190910160400192915050565b600060808284031215610ec057600080fd5b50919050565b634e487b7160e01b600052604160045260246000fd5b600082601f830112610eed57600080fd5b813567ffffffffffffffff80821115610f0857610f08610ec6565b604051601f8301601f19908116603f01168101908282118183101715610f3057610f30610ec6565b81604052838152866020858801011115610f4957600080fd5b836020870160208301376000602085830101528094505050505092915050565b6000806000806000806101208789031215610f8357600080fd5b8635610f8e81610df5565b95506020870135610f9e81610df5565b94506040870135610fae81610df5565b935060608701359250610fc48860808901610eae565b915061010087013567ffffffffffffffff811115610fe157600080fd5b610fed89828a01610edc565b9150509295509295509295565b60008083601f84011261100c57600080fd5b50813567ffffffffffffffff81111561102457600080fd5b60208301915083602082850101111561103c57600080fd5b9250929050565b600080600080600080600080610140898b03121561106057600080fd5b883561106b81610df5565b9750602089013561107b81610df5565b965060408901359550606089013594506080890135935061109f8a60a08b01610eae565b925061012089013567ffffffffffffffff8111156110bc57600080fd5b6110c88b828c01610ffa565b999c989b5096995094979396929594505050565b600080604083850312156110ef57600080fd5b82356110fa81610df5565b9150602083013561110a81610df5565b809150509250929050565b600080600080600080600080610140898b03121561113257600080fd5b883561113d81610df5565b9750602089013561114d81610df5565b9650604089013561115d81610df5565b9550606089013594506080890135935061109f8a60a08b01610eae565b60008060008060008060008060e0898b03121561119657600080fd5b88356111a181610df5565b975060208901356111b181610df5565b96506040890135955060608901356111c881610df5565b94506080890135935060a0890135925060c089013567ffffffffffffffff8111156110bc57600080fd5b6000806000806000806000806000806101408b8d03121561121257600080fd5b8a3561121d81610df5565b995060208b013561122d81610df5565b985060408b013561123d81610df5565b975060608b013561124d81610df5565b965060808b013561125d81610df5565b955060a08b0135945061127260c08c01610e0a565b935060e08b013592506101008b013591506101208b013567ffffffffffffffff81111561129e57600080fd5b6112aa8d828e01610edc565b9150509295989b9194979a5092959850565b6000608082840312156112ce57600080fd5b6040516080810181811067ffffffffffffffff821117156112f1576112f1610ec6565b8060405250823581526020830135602082015260408301356040820152606083013560608201528091505092915050565b634e487b7160e01b600052601160045260246000fd5b8181038181111561134b5761134b611322565b92915050565b600181811c9082168061136557607f821691505b602082108103610ec057634e487b7160e01b600052602260045260246000fd5b60008060006060848603121561139a57600080fd5b83356113a581610df5565b95602085013595506040909401359392505050565b6000826113d757634e487b7160e01b600052601260045260246000fd5b500490565b808202811582820484141761134b5761134b611322565b60006020828403121561140557600080fd5b81518015158114610e3757600080fd5b60008251611427818460208701610e57565b919091019291505056fea2646970667358221220747ce5e568aa421209622a8790ee398fc9e98f3aa493fec1f282de9584ec89ea64736f6c63430008140033",
    "linkReferences": {}
  },
  "methodIdentifiers": {
    "REGISTRAR()": "cb609077",
    "_URI()": "b4e87e8f",
    "addToWhitelist(address)": "e43252d7",
    "admin()": "f851a440",
    "coverageInfo(uint256)": "9b11b4d9",
    "dappOperatorFees(address)": "1385a7b6",
    "fundPool(uint256)": "da3a5f72",
    "getFees(address)": "9af608c9",
    "isWhitelisted(address)": "3af32abf",
    "processApproval(address,address,address,uint256,(uint256,uint256,address,address),bytes)": "5cf5041f",
    "processCash(address,address,address,uint256,uint256,(uint256,uint256,address,address),bytes)": "9c9b8848",
    "processFund(address,address,uint256,uint256,uint256,(uint256,uint256,address,address),bytes)": "90b7c943",
    "processTokenURI(uint256)": "4fe17e1a",
    "processTransfer(address,address,address,address,address,uint256,address,uint256,uint256,bytes)": "c0c9572c",
    "processWrite(address,address,uint256,address,uint256,uint256,bytes)": "b5d701ba",
    "recoverFunds(uint256)": "4ab358c7",
    "removeFromWhitelist(address)": "8ab1d681",
    "revenue(address,address)": "9a0ea37a",
    "setFees((uint256,uint256,uint256,uint256))": "fd77c960",
    "usdc()": "3e413bee",
    "withdrawFees(address)": "164e68de"
  },
  "id": 53
}